:100000000C9435000C945D000C945D000C945D0024
:100010000C945D000C945D000C945D000C945D00EC
:100020000C945D000C945D000C945D000C945D00DC
:100030000C945D000C945D000C945D000C945D00CC
:100040000C94CE030C945D000C945D000C945D0048
:100050000C945D000C945D000C945D000C945D00AC
:100060000C945D000C945D00ED0511241FBECFEFD4
:10007000D8E0DEBFCDBF11E0A0E0B1E0EAE0FDE0F6
:1000800002C005900D92A232B107D9F724E0A2E296
:10009000B1E001C01D92A53EB207E1F710E0C5E353
:1000A000D0E004C02197FE010E946906C433D10745
:1000B000C9F70E9418040C9483060C9400003FB703
:1000C000F8948091E1049091E204A091E304B0914E
:1000D000E40426B5A89B05C02F3F19F00196A11D89
:1000E000B11D3FBFBA2FA92F982F8827BC01CD0182
:1000F000620F711D811D911D42E0660F771F881FE1
:10010000991F4A95D1F7089580E991E008950F93DA
:100110001F93CF93DF93209123012F5F322F3770EE
:100120003093230120FF2BC020E831FD2064347080
:1001300009F02062205FFC01EC01239600E011E051
:100140006485662329F070E0C8010E940D066F5F88
:100150006187322F369F030E30E0311D112431119B
:1001600010C01682662311F0615061873196EC173A
:10017000FD0731F7DF91CF911F910F91089520E096
:10018000D4CF31503683EECF4F925F926F927F92F1
:100190008F929F92AF92CF92DF92EF92FF920F9346
:1001A0001F93CF93DF933C01EB010E945F00F301AB
:1001B00027853089621B730B6A307105B0F3F894A0
:1001C000E881F9810BB100641BB11F7B1BB9CA84A4
:1001D0008F814C2D481B842F4F839F844A805B80E6
:1001E000FD84EC84DE84F394E394D3949E8138857B
:1001F0008984AB844181D20120E0622F722F71810A
:10020000442788947111780F08F47FEF81958894C2
:10021000F0FC470F47958894F1FC470F4795889469
:10022000F2FC470F47958894F3FC470F4795889455
:10023000F4FC470F47958894F5FC470F4795889441
:10024000F6FC470F47958894F7FC470F479588942D
:10025000272FF110242F8C0D422F002C0BB900C03A
:1002600047FF1BB970812227889400C000C0002C72
:100270001BB97111790F00C0002C0BB900C046FFEB
:100280001BB908F47FEF9195889400C000C0002C42
:100290001BB9E0FC270F00C0002C0BB900C045FFC4
:1002A0001BB927958894E1FC270F00C000C0002CE3
:1002B0001BB92795889400C0002C0BB900C044FFDF
:1002C0001BB9E2FC270F2795889400C000C0002CC2
:1002D0001BB9E3FC270F00C0002C0BB900C043FF83
:1002E0001BB927958894E4FC270F00C000C0002CA0
:1002F0001BB92795889400C0002C0BB900C042FFA1
:100300001BB9E5FC270F2795889400C000C0002C7E
:100310001BB9E6FC270F00C0002C0BB900C041FF41
:100320001BB927958894E7FC270F00C000C0002C5C
:100330001BB92795889400C0002C0BB900C040FF62
:100340001BB9472FE110422F980D00C000C0002CB0
:100350001BB900C000C0002C0BB900C047FF1BB97F
:1003600072812227889400C000C0002C1BB9711133
:10037000730F00C0002C0BB900C046FF1BB908F476
:100380007FEFE90DF11D00C000C0002C1BB9D0FCAF
:10039000270F00C0002C0BB900C045FF1BB92795E3
:1003A0008894D1FC270F00C000C0002C1BB92795F2
:1003B000889400C0002C0BB900C044FF1BB9D2FCCC
:1003C000270F2795889400C000C0002C1BB9D3FCD0
:1003D000270F00C0002C0BB900C043FF1BB92795A5
:1003E0008894D4FC270F00C000C0002C1BB92795AF
:1003F000889400C0002C0BB900C042FF1BB9D5FC8B
:10040000270F2795889400C000C0002C1BB9D6FC8C
:10041000270F00C0002C0BB900C041FF1BB9279566
:100420008894D7FC270F00C000C0002C1BB927956B
:10043000889400C0002C0BB900C040FF1BB9472FA7
:10044000D110422F319500C000C0002C1BB93A0DCD
:1004500000C000C00BB900C047FF1BB97181222743
:10046000889400C000C0002C1BB97111780F00C027
:10047000002C0BB900C046FF1BB908F47FEF819533
:10048000889400C000C0002C1BB9F0FC270F00C0EE
:10049000002C0BB900C045FF1BB927958894F1FCCF
:1004A000270F00C000C0002C1BB92795889400C0FE
:1004B000002C0BB900C044FF1BB9F2FC270F279595
:1004C000889400C000C0002C1BB9F3FC270F00C0AB
:1004D000002C0BB900C043FF1BB927958894F4FC8E
:1004E000270F00C000C0002C1BB92795889400C0BE
:1004F000002C0BB900C042FF1BB9F5FC270F279554
:10050000889400C000C0002C1BB9F6FC270F00C067
:10051000002C0BB900C041FF1BB927958894F7FC4C
:10052000270F00C000C0002C1BB92795889400C07D
:10053000002C0BB900C040FF1BB9472FF110422F10
:100540008C0D00C000C0002C1BB9119709F086CE9D
:1005500020EE31E0D2010E944306DC01CB01F4E041
:10056000B695A79597958795FA95D1F730E020E055
:10057000B901EAE94E9E040C611D5E9E600D711D7D
:100580001124650D711D860F971FA11DB11D893E98
:10059000E3E09E07A105B10508F434C0885E9340EE
:1005A000A109B10942E0B695A795979587954A9517
:1005B000D1F747E0849F080E211D949F200D311D27
:1005C0001124290F311D6091220170E0860F971FC1
:1005D000820F931F4091DD045091DE046091DF048F
:1005E0007091E004292F3327420F531F611D711DA5
:1005F0004093DD045093DE046093DF047093E004C5
:100600008093220178940E945F00F301708B6787CA
:10061000DF91CF911F910F91FF90EF90DF90CF90DE
:10062000AF909F908F907F906F905F904F900895C4
:10063000569A08950F931F93CF93DF93CDB7DEB7EC
:1006400062970FB6F894DEBF0FBECDBF8C01F901E3
:10065000DC011C968C917A8369835C834B835E8377
:100660004D8390819D8791819E8792819F87813064
:10067000F1F4CE0101960E94870083E0888B1A8AEC
:10068000198AD801ED91FC910484F585E02DBE0115
:100690006F5F7F4FC801099562960FB6F894DEBF71
:1006A0000FBECDBFDF91CF911F910F9108951C8692
:1006B0001B861A86198618861F82DFCF0F931F9319
:1006C000CF93DF93CDB7DEB762970FB6F894DEBF56
:1006D0000FBECDBF8C01F901DC011C968C917A8391
:1006E00069835C834B835E834D8390819D87918179
:1006F0009E8792819F878130E9F4CE0101960E9406
:100700008700188A1A8A198AD801ED91FC9104840D
:10071000F585E02DBE016F5F7F4FC8010995629698
:100720000FB6F894DEBF0FBECDBFDF91CF911F9102
:100730000F9108951C861B861A86198618861F82BB
:10074000E0CF90E080E00895FC01858596850895CE
:10075000CF93DF9300D000D000D0CDB7DEB7AB0190
:100760001C821D821E82DC01ED91FC910190F081C2
:10077000E02D19821A821B829E012F5F3F4FBE011E
:100780006C5F7F4F099526960FB6F894DEBF0FBEBB
:10079000CDBFDF91CF9108950E947E061F920F92E8
:1007A0000FB60F9211242F933F938F939F93AF9384
:1007B000BF938091DD049091DE04A091DF04B0919D
:1007C000E0043091DC0423E0230F2D3758F5019627
:1007D000A11DB11D2093DC048093DD049093DE0401
:1007E000A093DF04B093E0048091E1049091E204CF
:1007F000A091E304B091E4040196A11DB11D809382
:10080000E1049093E204A093E304B093E404BF9165
:10081000AF919F918F913F912F910F900FBE0F90AD
:100820001F90189526E8230F0296A11DB11DD2CF67
:10083000CF93DF9300D01F92CDB7DEB7789484B505
:10084000826084BD84B5816084BD85B5826085BDCC
:1008500085B5816085BD80916E00816080936E005A
:10086000109281008091810082608093810080914C
:1008700081008160809381008091800081608093FD
:1008800080008091B10084608093B1008091B000BD
:1008900081608093B00080917A00846080937A00B8
:1008A00080917A00826080937A0080917A008160E2
:1008B00080937A0080917A00806880937A00109209
:1008C000C10080913701811145C010922901109219
:1008D00028018FEF80932C0180932D0180932E01AE
:1008E00080932F01809330018093310181E08093C8
:1008F0003201109234011092330110922B011092A8
:100900002A018091450190914601892B31F486E2BC
:1009100091E09093460180934501E0912401F0918C
:100920002501309721F086E291E09583848386E269
:1009300091E090932501809324011092360110924A
:10094000350184E191E0909327018093260181E0B5
:1009500080933701569A88E591E09093290180931E
:1009600028018CE291E090933401809333018091CF
:100970004E0190914F01A0915001B0915101843CE2
:1009800029E09207A105B10520F484EC99E0A0E0EC
:10099000B0E080934E0190934F01A0935001B0932B
:1009A0005101E8E5F1E08CED94E0108211821282B1
:1009B00033968E179F07C9F7F0904B0180914E0137
:1009C00090914F01A0915001B0915101892B8A2B38
:1009D0008B2BD9F00E945F000091470110914801D4
:1009E0002091490130914A01601B710B820B930BDE
:1009F00000914E0110914F01209150013091510111
:100A00006017710782079307C8F20E945F00609326
:100A10004701709348018093490190934A01E09106
:100A20005601F0915701309759F040915201509181
:100A3000530160915401709155018F2D0995F82E45
:100A400000914501109146014F2C512C712C612CC5
:100A50000115110509F461C0D8011C96EC901C9792
:100A600080914C0190914D018436910510F41C96B3
:100A70001C92D801ED91FC91A280B38019821A8258
:100A80001B82FF20A1F1F8013696CC24C394D12C0F
:100A900021919280222321F1992011F130E050E040
:100AA00040E02F5F3F4F4F4F5F4FC301B2010E94A5
:100AB000FD059B01AC01892D90E0B0E0A0E0BC01F8
:100AC000CD016F5F7F4F8F4F9F4F0E94FD05D60175
:100AD000119721E030E02C0F3D1FA20FB31F8C9324
:100AE0003FEFC31AD30A84E0C816D10489F6D801AF
:100AF0001D964D915C911E9712966D917C919E0171
:100B00002F5F3F4FC801F5010995D8011C96EC9263
:100B10001C9714960D911C919BCF8091430190914D
:100B200044019C012F5F3F4F3093440120934301C8
:100B300049970CF44AC08FB7F8942091DD043091A6
:100B4000DE044091DF045091E0048FBF80913F01AB
:100B500090914001A0914101B0914201281B390BB5
:100B60004A0B5B0B21F421E030E040E050E0E091E3
:100B70004301F091440188EE93E0E89FB001E99FC2
:100B8000700DF89F700D1124072E000C880B990B27
:100B90000E94210630934D0120934C011092440194
:100BA000109243012FB7F8948091DD049091DE04F8
:100BB000A091DF04B091E0042FBF80933F01909398
:100BC0004001A0934101B093420100E010E0011503
:100BD0001105E9F30E940000FACFEBE4F1E08FEF9A
:100BE000808312821182148613868FEF9FEFDC01BF
:100BF00087839087A187B2870895DB018F939F93A6
:100C00000E944A06BF91AF91A29F800D911DA39FA4
:100C1000900DB29F900D1124089597FB072E16F4A6
:100C2000009407D077FD09D00E94550607FC05D037
:100C30003EF4909581959F4F0895709561957F4FF3
:100C40000895A1E21A2EAA1BBB1BFD010DC0AA1F0D
:100C5000BB1FEE1FFF1FA217B307E407F50720F025
:100C6000A21BB30BE40BF50B661F771F881F991FA0
:100C70001A9469F760957095809590959B01AC01E9
:100C8000BD01CF0108950E946F06B7FF0895821B32
:100C9000930B08950E946F06A59F900DB49F900D31
:100CA000A49F800D911D11240895AA1BBB1B51E127
:100CB00007C0AA1FBB1FA617B70710F0A61BB70BCC
:100CC000881F991F5A95A9F780959095BC01CD0171
:100CD0000895EE0FFF1F0590F491E02D0994A29F57
:100CE000B001B39FC001A39F700D811D1124911D00
:100CF000B29F700D811D1124911D089581E090E037
:0A0D0000F8940C948306F894FFCFDA
:100D0A0000000000CC03CC03CC03A803A403A10376
:100D1A00000000005E031A031803A803A40384005A
:020D2A00C40003
:00000001FF
